:102000000080002051E8000039E8000039E80000B5
:1020100000000000000000000000000000000000C0
:1020200000000000000000000000000039E800008F
:10203000000000000000000039E80000A5E80000F2
:1020400039E8000039E8000005C4000039E8000064
:1020500039E8000039E800007DAD00003DE80000EF
:1020600039E80000ADE70000698E000039E80000A3
:10207000559D000039E8000039E8000039E800000B
:1020800039E8000039E8000039E8000039E80000CC
:102090000000000039E8000039E8000039E80000DD
:1020A00039E8000039E8000039E8000039E80000AC
:1020B0000000000010B5064C2378002B07D1054B1B
:1020C000002B02D0044800E000BF0123237010BDA4
:1020D000100300200000000084180200044B10B51B
:1020E000002B03D00349044800E000BF10BDC046E8
:1020F0000000000014030020841802000020704734
:10210000037C020000201B0704D5D36A506A181A0A
:1021100000D501487047C046FFFFFF7F10B5103063
:102120000AF0EAFB10BD13B56B46DC1D012221004D
:1021300010300AF01DFB012801D1207816BD0120C6
:102140004042FBE710B510300AF0D2FC10BD10B5CC
:1021500010300AF003FF10BD07B56B46D971073385
:102160000122190010300AF0F9FE0EBD07B5C900B2
:1021700041180822684613F0A0FD0098019903B0A9
:1021800000BD002909D07F220B7A086093431A0012
:102190000A23C01713430B724860704700B58BB019
:1021A00000230A0069468B808B71010001A80AF0A8
:1021B0004FFD0BB000BD00B58BB000230A0069468F
:1021C0008B808B710100013301A80AF041FD0028CA
:1021D00002D001A80BF0E2FA0BB000BD30B58BB015
:1021E000002315006A4693809371084A84180A00F8
:1021F00001A821000AF0D6FC002804D02A00210002
:1022000001A80AF0FFFD0BB030BDC0464404000039
:102210000A21435E0200181E01D01B01D01870472E
:1022200070B505000E000468002C04D02000FFF7F4
:10223000EFFF86420ED13000FFF7EAFF002C0BD0F3
:10224000031E02D0031B1B111BB26381002800D1A7
:102250006C6070BD0400E7E72860F7E7F8B50D1E75
:102260001BD00468002C18D0280014F0CDFCE668C0
:102270000700301E01D014F0C7FCB84208D100237B
:10228000BB420BD0E95CF25C914201D10133F7E72C
:102290002000FFF7BDFF0400E4E700242000F8BDA4
:1022A000F7B50D1E0091019218D00468002C15D0CE
:1022B000E668019F301E01D014F0A6FCB84208D198
:1022C0000023BB420BD0E95CF25C914201D10133A7
:1022D000F7E72000FFF79CFF0400E7E70024200059
:1022E000FEBD7F22037A93431A0020231343037217
:1022F0000023036043607047020048688B68103019
:10230000834203D2012300200B747047103B180056
:102310008B605368002B08D0C11A09115981002322
:10232000506043810372C360EFE71060F7E7002855
:1023300007D07F22037A1340042B03D0052B01D052
:10234000002070470068FCE7F0B5037805000F0037
:1023500089B02B2B31D0002203922D2B02D10135D5
:102360002C3B03932B781A00303A092A04D9002217
:1023700000922E2B00D0AEE0002000217F4E2B7863
:102380001C00303CE4B2092C1AD8B14224D802D146
:102390007B4B984220D800230A2210F0DBFC00235C
:1023A00004940593E3434A1C01D1984214D8049B3A
:1023B000059C0135C0186141E1E700230135D0E7F4
:1023C000002B09D1039B002B25D080231B069942AB
:1023D00002D811D100280FD0802600247603B14204
:1023E00024D2641B2B191BB204932B781A00303AA9
:1023F000092A22D80135F5E77F223B7A93431A0058
:102400000A2313433B72002342428B413A607B60B4
:10241000039B00935FE07F223B7A386079609343AF
:102420001A00082313433B720123F2E70A22002318
:10243000013410F06FFC24B2D1E72E2B1DD1514E88
:1024400001352C78303CE4B2092C16D8B14212D8B0
:1024500002D14D4B98420ED800230A2210F07AFC8C
:10246000002306940793069B079CC0186141049CB7
:10247000013C23B204930135E3E720222B780024AA
:102480009343452B45D16B782D2B27D12C3B02351F
:1024900000939A235B0000240A229C462B78303B51
:1024A000DEB2092E31D854431C19049B1B19634515
:1024B00029DD00997F223B7A002916D00399002458
:1024C0000025002901D080252D0693430C223C6075
:1024D0007D6013433B72009809B0F0BD2B2B02D0F6
:1024E00001350094D5E70235FBE703990020002968
:1024F00007D1264993430C221343386079603B721D
:1025000092E72349F6E70135C8E7009B002B00D08E
:10251000644200232D7800939D42DCD1049B1C195A
:1025200010F076FC1B4E002C00DC1B4EE317E41869
:102530005C40002C10D001231C4209D0EB00F318A2
:10254000009001911A685B680098019912F076FB7F
:1025500001356410EDB2ECE7039B002B02D0802321
:102560001B06C9187F223B7A93431A000C2313439E
:102570003B7202000B003A607B6055E7999999190C
:102580009999999999990100989999990000F07FE2
:102590000000F0FF509D0100089D01000268536893
:1025A00043609168CB1A0021C36081608B4201D1E6
:1025B000012313747047836810B5C4685A1CA24283
:1025C00003D244688260E15410BD012203681A748A
:1025D000FAE7A02380229B01CB189BB2D200934242
:1025E00004D28905890D01800020704790239B014A
:1025F000CB189BB2934207D2038889059B02890DB1
:10260000194380235B02C91841600120EDE70000F7
:1026100070B504000D0004300C490EF058FB230087
:10262000BC331D6025008D22C03528000021D2005A
:1026300013F05FFB0023064AEB71A352A2189370BC
:10264000A523044ADB002000E25070BD7C98010005
:1026500004050000208C0100F8B50F4FC030390090
:102660000500FFF79BFD0D4E002806D0390028001D
:10267000FFF7A1FD0A49041E08D00A493A002800C4
:10268000FFF7ACFD0849041E00D0084930000CF0EB
:102690004DFC2000F8BDC0463B91010004370020EE
:1026A0004F9101008391010090910100B4910100CC
:1026B00070B505002E00DE4CDE4920000CF036FC23
:1026C000DD4920000CF016FC02CE0A2220000CF09E
:1026D000A0FCDA4920000CF00DFC310020000CF0C9
:1026E0002FFCD74920000CF005FC0A2229692000A4
:1026F0000CF08BFCD34920000CF0FCFB0A2269692A
:1027000020000CF082FCD04920000CF0F3FB0A22E0
:10271000A96920000CF07DFCCC4920000CF0EAFBFC
:102720000A22E96920000CF074FCC94920000CF071
:10273000E1FB1022296A20000CF06BFCC549200047
:102740000CF0D8FB1022696A20000CF062FCC24930
:1027500020000CF0CFFB1022A96A20000CF059FCDD
:10276000BE4920000CF0C6FB1022E96A20000CF0E4
:1027700050FCBB4920000CF0BDFB0A22296B200055
:102780000CF047FCB74920000CF0B4FB0A22696B3F
:1027900020000CF03EFCB44920000CF0ABFB0A22F8
:1027A000A96B20000CF035FCB04920000CF0A2FB16
:1027B0000A22E96B20000CF02CFCAD4920000CF043
:1027C00099FB0A22296C20000CF023FCA949200067
:1027D0000CF090FB0A22696C20000CF01AFCA64950
:1027E00020000CF087FB0A22A96C20000CF011FCE1
:1027F000A24920000CF07EFB0A22E96C20000CF0BC
:1028000008FC9F4920000CF075FB0A22296D20006E
:102810000CF0FFFB9B4920000CF06CFB0A22696D59
:1028200020000CF0F6FB984920000CF07FFB974944
:1028300020000CF05FFB0A22A96D20000CF0E9FBE0
:10284000934920000CF056FB0A22E96D20000CF0A1
:10285000E0FB904920000CF04DFB0A22296E20007D
:102860000CF0D7FB8C4920000CF044FB0A22696E67
:1028700020000CF0CEFB894920000CF03BFB0A2223
:10288000A96E20000CF0C5FB854920000CF032FB3E
:102890000A22E96E20000CF0BCFB824920000CF0FB
:1028A00029FB0A22296F20000CF0B3FB7E4920008F
:1028B0000CF020FB0A22696F20000CF0AAFB7B4978
:1028C00020000CF017FB0A22A96F20000CF0A1FBDE
:1028D000774920000CF00EFB0A22E96F20000CF073
:1028E00098FB744920000CF005FBF16F0A222000D0
:1028F0000CF08FFB704920000CF0FCFA2B00083321
:10290000D96F0A2220000CF084FB6C4920000CF0E7
:10291000F1FA2B00883319680A2220000CF079FBA9
:10292000674920000CF0E6FA2B008C3319680A2264
:1029300020000CF06EFB634920000CF0DBFA2B004A
:10294000903319680A2220000CF063FB5E492000D6
:102950000CF0D0FA2B00943319680A2220000CF0F6
:1029600058FB5A4920000CF0C5FA2B00983319681F
:102970000A2220000CF04DFB554920000CF0BAFA59
:102980002B009C3319680A2220000CF042FB5149AD
:1029900020000CF0AFFA2B00A03319680A222000A7
:1029A0000CF037FB4C4920000CF0A4FA2B00A433A8
:1029B00019680A2220000CF02CFB484920000CF07A
:1029C00099FA2B00A83319680A2220000CF021FB89
:1029D000434920000CF08EFA2B00AC3319680A2210
:1029E00020000CF016FB3F4920000CF083FA2B006E
:1029F000B03319680A2220000CF00BFB3A49200082
:102A00000CF078FA2B00B43319680A2220000CF07D
:102A100000FBB835354920000CF06CFA29680A2211
:102A200020000CF0F6FA324920000CF07FFA70BD5D
:102A300004370020E0910100029201000C92010095
:102A40001A92010030920100359201003A92010081
:102A50004E92010066920100829201009E92010056
:102A6000BA920100CC920100DE920100F1920100C5
:102A7000FA920100039301000C93010015930100E9
:102A80001E930100389301004F93010061930100F0
:102A9000769301008B930100A0930100B593010090
:102AA000CA930100DF930100F4930100099401002F
:102AB0001E940100349401004A94010060940100C6
:102AC000769401008C940100A2940100B894010056
:102AD000CE940100E4940100FA94010010950100E5
:102AE000269501003C950100529501006895010072
:102AF0007E9501000200F0B500684C685568031926
:102B0000AB4210D21B78002B08D10D689C420BD031
:102B1000EF5CC65CB74201D10133F7E703780130BF
:102B2000002BFBD1EAE70020F0BD73B546680C002E
:102B30000191694605000096FFF7DCFF002804D1EB
:102B40003419631C6B602070300076BD032370B5B0
:102B5000CD1C9D430400280013F082F8031E00D012
:102B6000431922002361636100232832A060E060E2
:102B700023762000137070BD73B505000C1E009104
:102B8000019201D1002076BD6946FFF7B3FF00280E
:102B9000F9D101996B684A1CAE689A18B24202D901
:102BA00001232B74EFE76A60002BEBD0814203D046
:102BB000225C1A540130F9E7002218005A54E2E767
:102BC000806810B5002801D013F054F810BD70B51E
:102BD000057A0200202428002040254202D010005F
:102BE000FFF73CFB70BD10B5002801D0FFF7EFFFE9
:102BF00010BD031E1CD07F21027A0A40082A0CD087
:102C000000200A2A14D11A685B688020002100067F
:102C100012184B41584258410AE05A680120002AD4
:102C200004D180221B681206934200D30020C0B258
:102C3000704700000300002030B585B083420DD0FE
:102C40007F22187A10400438082810D80FF060FE50
:102C50001D1D050F080F110F2800187805B030BD95
:102C600009CB002B03D180231B069842F6D300200A
:102C7000F4E780221C685D680023120612196B417C
:102C800000208342EAD12000E8E76A461868002362
:102C900069461372FFF758FB6846FFF7CBFFDDE785
:102CA0001C685D68002220002900094B0FF0EEFF30
:102CB0000028D3D020002900064A074B0FF0D2FF8E
:102CC0000028CBD02000290012F0D4FDC6E7C04672
:102CD0000000E0C10000C0FFFFFFDF4170B504004D
:102CE00000680D00FFF785FF002803D02068FFF77C
:102CF000A1FF70BD2868FCE7F7B520310D00040086
:102D0000FD492800FFF763FF0123009001A96846F1
:102D100026000193FFF7E2FFF84901C62800FFF7FC
:102D200056FF002800D16DE27F22037A1340043B56
:102D3000012B00D966E2FFF7FAFA010030000EF02D
:102D40001BF8EF4F28003900FFF741FFED49FFF76F
:102D50004AFF0026009001A968460196FFF7BEFFD2
:102D6000390020612800FFF732FFE749FFF73BFFFA
:102D700001A9009068460196FFF7B0FF3900606135
:102D80002800FFF724FFE149FFF72DFF01A900907C
:102D900068460196FFF7A2FFDD49A0612800FFF712
:102DA00016FF01A9009068460196FFF797FFD949E1
:102DB000E0612800FFF70BFF1223009001A968468D
:102DC0000193FFF78BFFD44920622800FFF7FFFE35
:102DD0001323009001A968460193FFF77FFFCF49B5
:102DE00060622800FFF7F3FE1423009001A96846F3
:102DF0000193FFF773FFCA49A0622800FFF7E7FEBF
:102E00001523009001A968460193FFF767FFC549A4
:102E1000E0622800FFF7DBFE01A9009068460196FA
:102E2000FFF75CFFC04920632800FFF7D0FE01A92F
:102E3000009068460196FFF751FFBC496063280087
:102E4000FFF7C5FE01A9009068460196FFF746FF0F
:102E5000B749A0632800FFF7BAFE01A900906846B1
:102E60000196FFF73BFFB349E0632800FFF7AFFE91
:102E700001A9009068460196FFF730FFAE49206433
:102E80002800FFF7A4FE01A9009068460196FFF70D
:102E900025FFAA4960642800FFF799FE01A9009068
:102EA00068460196FFF71AFFA549A0642800FFF7BE
:102EB0008EFE01A9009068460196FFF70FFFA14919
:102EC000E0642800FFF783FEFF23009001A9684615
:102ED0000193FFF703FF9C4920652800FFF777FE69
:102EE0009A4B009001A968460193FFF7F7FE9849B5
:102EF00060652800FFF76BFE01A900906846019607
:102F0000FFF7ECFE9349A0652800FFF760FE01A9DA
:102F1000009068460196FFF7E1FE8F49E0652800C2
:102F2000FFF755FE01A9009068460196FFF7D6FE0F
:102F30008A4920662800FFF74AFE01A900906846EA
:102F40000196FFF7CBFE864960662800FFF73FFE3B
:102F500001A9009068460196FFF7C0FE8149A0666E
:102F60002800FFF734FE01A9009068460196FFF79C
:102F7000B5FE7D49E0662800FFF729FE01A9009013
:102F800068460196FFF7AAFE784920672800FFF7F8
:102F90001EFE01A9009068460196FFF79FFE744946
:102FA00060672800FFF713FE01A9009068460196AC
:102FB000FFF794FE6F49A0672800FFF708FE01A9FC
:102FC000009068460196FFF789FE6B49E06728008C
:102FD000FFF7FDFD01A9009068460196FFF77EFE10
:102FE000231DD86765492800FFF7F1FD01A900906E
:102FF00068460196FFF772FE23000833D8676049E0
:103000002800FFF7E4FD01A9009068460196FFF74C
:1030100065FE2300883318605A492800FFF7D7FD62
:1030200001A9009068460196FFF758FE23008C33F3
:10303000186055492800FFF7CAFD01A900906846AD
:103040000196FFF74BFE2300903318604F4928008C
:10305000FFF7BDFD01A9009068460196FFF73EFE0F
:103060002300943318604A492800FFF7B0FD01A9F6
:10307000009068460196FFF731FE230098331860F0
:1030800044492800FFF7A3FD01A900906846019676
:10309000FFF724FE23009C3318603F492800FFF708
:1030A00096FD01A9009068460196FFF717FE2300E0
:1030B000A033186039492800FFF789FD01A9009065
:1030C00068460196FFF70AFE2300A43318603449CE
:1030D0002800FFF77CFD01A9009068460196FFF7E4
:1030E000FDFD2300A83318602E492800FFF76FFD6F
:1030F00001A9009058E0C046AD950100B5950100CA
:10310000C095010080920100CA9D0100D295010086
:10311000D4950100E5950100F79501000C9601009A
:103120002196010036960100469601005696010050
:10313000679601006E960100759601007C9601006D
:10314000839601008A960100A09601008813000072
:10315000B3960100C4960100D5960100E6960100E1
:10316000F796010008970100199701002A970100BE
:103170003B9701004C9701005E970100709701009A
:103180008297010094970100A6970100B89701006B
:10319000CA970100DC970100EE970100009801003A
:1031A000129801002498010068460196FFF796FDE9
:1031B0002300AC33186014492800FFF708FD01A96B
:1031C000009068460196FFF789FD2300B033186030
:1031D0000E492800FFF7FBFC01A900906846019604
:1031E000FFF77CFD2300B433186009492800FFF77E
:1031F000EEFC01A9009068460196FFF76FFDB83418
:103200002060F7BD034999E5369801004898010010
:103210005A980100A195010070B5046846681834F9
:103220000D0020003100FFF7DEFCFFF7E2FC002874
:1032300006D031002000FFF7D6FCFFF7FBFC70BD85
:103240002868FCE7F8B504004568876818350E0063
:1032500028003900FFF7C7FCE4682100FFF7C3FC32
:10326000FFF7C7FC002809D039002800FFF7BBFC96
:103270002100FFF7B8FCFFF7DDFCF8BD3068FCE784
:10328000F0B585B00400019102920393002902D1A8
:10329000002005B0F0BD029D0068626843199342AA
:1032A0001FD21B78002B07D19D4218D0CF5CC65C83
:1032B000B74201D10133F7E703780130002BFBD18E
:1032C000EBE76360002AE3D000239D4203D0C85C93
:1032D000D0540133F9E7002310005355D9E70028F3
:1032E000D7D16B1CA068D3188342EAD90123237479
:1032F000CEE7F0B57F270D7A87B0019204000E006B
:103300003A003D40202D1BD00CD8032D3AD0052D7E
:103310001BD0237A93431D43257232687368226061
:10332000636018E0402DF4D1037A019ABB431D433A
:10333000002305720360436000F033F807B0F0BD6E
:10334000FEF7CFFF3100019AF6E742C9002904D108
:10335000037ABB4303720120F0E7002003AB18722D
:10336000059B32000198FFF78BFF237ABB430028AF
:1033700006D01D43257241C4431E9841C0B2DDE70B
:103380002372F9E742C901983200FFF7F5FB237A6F
:10339000BB43002803D01D43257241C4DBE72372E1
:1033A000CCE70023F0B50700036089B00E680192F6
:1033B0004360002E40D0F568002D36D0337A2800C7
:1033C000029313F021FC019903903800FEF794FF5B
:1033D000041E02D1002009B0F0BD6B461B7A5BB21F
:1033E000002B10DB7F22037A134020002372E5605C
:1033F0003100019AFFF77DFF0028EBD03000FEF787
:1034000007FF0600D5E7002005AB1872039A2900D4
:10341000079B019805950692FFF732FF051E0DD018
:103420008022237A52421343DFE738000199FEF7E6
:1034300063FF0028DCD1CDE70120CCE73800210074
:10344000FEF7EEFE2800C6E7437E002B06D1436957
:103450005A1C42611B78037601234376007E704735
:1034600070B5040001252000FFF7EEFF031E0BD00E
:10347000093BDBB2172B0CD82A009A40074B1A42A3
:1034800007D000236376EEE7207C431E984101308D
:1034900070BD012300202374FAE7C04613008000AA
:1034A00070B505000C00207800280CD02800FFF72C
:1034B000CBFF002806D02378834205D100230134B6
:1034C0006B76F0E7022070BD0320FCE737B5437E42
:1034D0000400002B0CD16B46DD1D01222900406940
:1034E0000CF0FBF8031E00D02B78237601236376C3
:1034F000207E3EBD70B5040001252000FFF7E6FFE9
:10350000031E0BD0093BDBB2172B0CD82A009A40C4
:10351000074B1A4207D000236376EEE7207C431E58
:103520009841013070BD012300202374FAE7C046A2
:103530001300800070B505000C00207800280CD026
:103540002800FFF7C3FF002806D02378834205D167
:10355000002301346B76F0E7022070BD0320FCE706
:1035600070B504000D00FFF76FFF0023A84201D1E2
:1035700063760133180070BD70B504000D00FFF7CD
:10358000A5FF0023A84201D163760133180070BD66
:1035900073B50C00C1B27F2803D82000FFF70BF8E9
:1035A00073BD00236A463F25137080226B46294075
:1035B000524211438009597081B2C3B21F290CD8FD
:1035C000403213436A469370D51C013D2978002987
:1035D000E6D02000FEF7EFFFF7E76946FC262B4018
:1035E000134380118B7083059B0DB600D9B2304216
:1035F00006D120226B4652421143D97001ADE4E757
:103600000D4069462A43CA7010229B11524213434F
:103610000B714D1DD9E70000F0B5002585B002AB58
:103620001D8004000395FFF70FFF202701906576AA
:103630002000FFF709FF0025019B0100657683420A
:1036400043D0A84202D1022005B0F0BD5C2838D199
:103650002000FFF7F9FE0028F5D01F4B752826D172
:10366000042665762000FFF7EFFE0028EBD0402807
:1036700005D83038C0B20F2804D90320E4E7B84396
:103680003738F7E700232D01013E0543F6B2ADB20E
:1036900063769E42E6D1290002A8FEF79AFF002831
:1036A000C6D021000398FFF773FFC1E702331A78F1
:1036B000002AE2D09042F9D159780029DDD00023C8
:1036C00063762000FEF777FFB2E72368187C431E7D
:1036D00098418000B8E7C0466C980100F0B500251D
:1036E00085B002AB1D8004000395FFF7EFFE202795
:1036F000019065762000FFF7E9FE0025019B01009F
:103700006576834243D0A84202D1022005B0F0BDC5
:103710005C2838D12000FFF7D9FE0028F5D01F4BD8
:10372000752826D1042665762000FFF7CFFE0028F5
:10373000EBD0402805D83038C0B20F2804D9032078
:10374000E4E7B8433738F7E700232D01013E05438E
:10375000F6B2ADB263769E42E6D1290002A8FEF72A
:1037600038FF0028C6D021000398FFF711FFC1E7FA
:1037700002331A78002AE2D09042F9D15978002910
:10378000DDD0002363762000FEF715FFB2E7236843
:10379000187C431E98418000B8E7C0466C98010031
:1037A00070B5037A04000D0016005B0601D1FEF728
:1037B00098FD227A2023100018401A4212D0281EA9
:1037C00010D029002000FEF749FD00280AD1310061
:1037D0002000FEF791FD002804D07F22037AC56007
:1037E0001340037270BD10B50400006803685B6885
:1037F000984763681818606010BD70B50500080030
:103800000C0013F001FA210002002800FFF7EBFF83
:1038100070BD000070B5050000242B7AA34206D9C4
:10382000280003490134FFF7E8FFE4B2F5E770BD73
:1038300038910100F0B516260700140089B01D006C
:1038400002ABF618200029000A2200230FF062FACA
:10385000013E303200232000290032700A220094F9
:1038600001950FF057FA019B04000D00002BE9D1E0
:10387000009B092BE6D8162302AA9B1831003800BA
:103880009A1BFFF7B0FF09B0F0BDF0B589B0040096
:103890001F0002910392002819D0037A0E000192B2
:1038A0005B0601D1FEF71DFD227A2023110019408D
:1038B0001A4226D0002E09D0019A31002000049629
:1038C0000592FEF7EDFC002804D00600340020002D
:1038D00009B0F0BD39002000FEF70EFD051E0ED028
:1038E000019A3100380006960792FFF745F9061E47
:1038F00009D080232A7A5B4213432B72E8602E00A2
:10390000E4E70C00E3E729002000FEF789FC35001E
:10391000F5E7030000202F2B0FD90130392B0CD9EC
:103920005E2B07D97A2B08D900205A229A424041AF
:10393000C0B202E00020402BF6D87047F7B5DBB2EA
:1039400004000F0005250193002B1ED000234376B1
:10395000FFF786FD051E18D17D212000FFF700FE30
:10396000002812D12000FEF719FE2000FFF76CFDA1
:1039700027280CD022280AD02000FFF765FD06007A
:10398000FFF7C7FF00280ED103252800FEBD200049
:10399000FFF742FE00285AD12000FFF761FD061E06
:1039A00015D00500F1E70023310020006376FEF713
:1039B00002FE2000FFF748FD0600FFF7AAFF0028DF
:1039C000F1D123681B7C002BE6D00425DDE73A21EA
:1039D0002000FFF7C5FD0028D6D06368A268380034
:1039E0009E546168FEF73AFC011E11D1A16820685F
:1039F000FFF79BF8E16906003800FEF77DFC002820
:103A0000E3D080220100037A524213430372C6605E
:103A1000019B00222000013B00F01CF8002816D179
:103A20002000FFF71DFD002811D17D212000FFF7A8
:103A300097FD0028A9D12C212000FFF791FD002837
:103A4000A2D02000FFF70CFD002800D18AE7050076
:103A50009BE70000F7B505000E001F1CFFF700FDF7
:103A6000041E00D085E02800FFF7EEFC662800D198
:103A70009CE01BD8272803D05B2841D022281ED1E8
:103A80002800FEF78BFD2800FFF7C6FD041E70D14D
:103A9000A9682868FFF749F87F22337AA968934319
:103AA0001A0005231343337203C662E0742800D161
:103AB0006EE07B2861D04E496E2800D172E028006C
:103AC000FFF7C2FC2B002F00403301937B1BDBB2BE
:103AD0002F2800D874E0392806D9020020218A4313
:103AE000D2B2452A00D074E0019B0137BB4200D11D
:103AF0007BE000236B76F8772800FFF7A5FCE5E76D
:103B00007F22337AFFB293431A0040231343337268
:103B100034607460002F2BD06C762800FFF7A0FC77
:103B2000041E26D15D212800FFF71AFD002820D1B0
:103B3000E9693000FEF7E0FB011E1CD000222800DE
:103B40007B1EFFF787FF002820D12800FFF788FCA5
:103B500000281BD15D212800FFF702FD002808D1B5
:103B60002C212800FFF7FCFC0028E1D1032400E011
:103B700005242000FEBD0424FBE73000FEF7B1FB66
:103B8000002201003B1C2800FFF7D8FE0400F0E7EC
:103B90007F22337A174993431A0006231343337263
:103BA000012333702800FFF77BFCEFE77F22337A95
:103BB000114993431A000623134333723470F1E71B
:103BC0002B2800D190E702002D3AD2B2012A00D86A
:103BD0008AE700222800EB1801333100DA77203021
:103BE000FEF7B2FB0028C4D1C0E73F23F1E7C0468F
:103BF000889801007D980100829801000300002050
:103C00002F2B0FD90130392B0CD95E2B07D97A2BEA
:103C100008D900205A229A424041C0B202E0002056
:103C2000402BF6D87047F7B5DBB204000F0005252E
:103C30000193002B1ED000234376FFF75BFC051E8B
:103C400018D17D212000FFF797FC002812D1200019
:103C5000FEF7A4FC2000FFF739FC27280CD022280F
:103C60000AD02000FFF732FC0600FFF7C7FF00284C
:103C70000ED103252800FEBD2000FFF72FFD0028F0
:103C80005AD12000FFF736FC061E15D00500F1E7DB
:103C90000023310020006376FEF78DFC2000FFF743
:103CA00015FC0600FFF7AAFF0028F1D123681B7C52
:103CB000002BE6D00425DDE73A212000FFF75CFC6D
:103CC0000028D6D06368A26838009E546168FEF769
:103CD000C5FA011E11D1A1682068FEF726FFE1692F
:103CE00006003800FEF708FB0028E3D08022010020
:103CF000037A524213430372C660019B00222000E4
:103D0000013B00F01BF8002816D12000FFF7F2FB62
:103D1000002811D17D212000FFF72EFC0028A9D119
:103D20002C212000FFF728FC0028A2D02000FFF75C
:103D3000E1FB002800D18AE705009BE7F7B5050005
:103D40000E001F1CFFF7D6FB041E00D085E02800E4
:103D5000FFF7BCFB662800D19CE01BD8272803D0C6
:103D60005B2841D022281ED12800FEF717FC28002E
:103D7000FFF7B4FC041E70D1A9682868FEF7D5FED1
:103D80007F22337AA96893431A00052313433372C1
:103D900003C662E0742800D16EE07B2861D04E49F2
:103DA0006E2800D172E02800FFF790FB2B002F0057
:103DB000403301937B1BDBB22F2800D874E03928F5
:103DC00006D9020020218A43D2B2452A00D074E0ED
:103DD000019B0137BB4200D17BE000236B76F87773
:103DE0002800FFF773FBE5E77F22337AFFB29343A6
:103DF0001A0040231343337234607460002F2BD0B9
:103E00006C762800FFF776FB041E26D15D21280082
:103E1000FFF7B2FB002820D1E9693000FEF76CFA09
:103E2000011E1CD0002228007B1EFFF787FF002800
:103E300020D12800FFF75EFB00281BD15D21280060
:103E4000FFF79AFB002808D12C212800FFF794FBEC
:103E50000028E1D1032400E005242000FEBD042455
:103E6000FBE73000FEF73DFA002201003B1C280072
:103E7000FFF7D9FE0400F0E77F22337A1749934316
:103E80001A00062313433372012333702800FFF70F
:103E900051FBEFE77F22337A114993431A0006233F
:103EA000134333723470F1E72B2800D190E70200FE
:103EB0002D3AD2B2012A00D88AE700222800EB1856
:103EC00001333100DA772030FEF73EFA0028C4D102
:103ED000C0E73F23F1E7C046889801007D980100C4
:103EE0008298010010B5036898B04360C3686A46C1
:103EF0008360059100230100441C037413745376FE
:103F0000E377009007900A23002268461831FFF7F4
:103F100015FF00280AD16B46187E002806D0E27FE4
:103F20000823100018401A4200D0032018B010BD1A
:103F3000F0B507009DB0C037019025493800FEF765
:103F40002DF9041E06D1234923480AF0EFFF200073
:103F50001DB0F0BDFA2300269B0011931F4B0FAD3F
:103F600039000F931A4A33002E82AE7413A86E6084
:103F700008F06EFE2F7CB74205D1194916480AF0A9
:103F8000D5FF3C00E3E780210022090102A8FEF7EB
:103F9000DDFD290004A8FFF7A5FFC5B213A808F0AE
:103FA000F9FD002D0FD00C4C0E4920000AF0A2FFA5
:103FB0000D4BAD002000E9580AF0CCFF340002A8F8
:103FC000FEF7FEFDC3E7019802A9FEF795FEF6E7AE
:103FD000839101008D98010004370020E89C0100C6
:103FE0001A9C0100A99801000400002010B50400EB
:103FF000006803681B68984763681818606010BD04
:1040000070B504000B4B9D78002D0CD0DA7802338C
:104010008A42F8D15C212000FFF7E8FF2900200048
:10402000FFF7E4FF05E00029F9D120000249FFF77E
:10403000E4FB70BD6C980100C7980100F0B5030067
:10404000027A7F200F008DB010400C2812D87E21FC
:104050000A4215D002380A2812D80EF063FCF50186
:10406000F501E101E1010D0211000A021100F70161
:1040700011001300202800D1CCE1402800D182E1BA
:10408000D549A5E11D685C682A00230028002100AD
:104090000EF0D8FD0028F3D00022002328002100D4
:1040A0000EF0D0FD00280DD12A00230028002100A9
:1040B0000FF054FE02000B00280021000EF0C2FD9C
:1040C0000028DDD100220023280021000EF0C0FDD1
:1040D000002806D02D213800FFF788FF80231B061B
:1040E000E418002228002100BC4B0EF0CFFD002870
:1040F00062D0082380260293002376000193029960
:10410000B748FEF733F802000B00280021000EF03C
:10411000BDFD00280FD00299B248FEF727F80B002A
:1041200002002100280010F089FD0C00019B050011
:10413000F01803B20193029B76105A1E0292DED24F
:10414000029B049300220023280021000EF094FD1E
:10415000002837D028002100A34AA44B0EF082FD8E
:1041600000282FD000230293029A049B9B1A0393EA
:104170001B0627D403999B48FDF7F8FF00229C4BB0
:1041800010F05CFD2A0023000EF076FD00280FD011
:1041900003999348FDF7EAFF0B0002002100280075
:1041A00010F04CFD0C00019B0500981B03B201931D
:1041B000029B76100133D6E780260823760004930D
:1041C0000190BFE7280021000EF004FE092306003D
:1041D0000593884B049003936B461B7D5BB202935F
:1041E000059B013BDBB20593049B092B0AD90A21ED
:1041F00003980EF0A1FB0A21039004980EF09CFB9B
:104200000490E9E7300011F09BFB02000B0028004E
:10421000210010F07FFF040003980D0011F090FBC7
:1042200002000B002000290010F008FD04000D0022
:104230000EF0D0FD049011F083FB02000B00200073
:10424000290010F067FF0B0002000FF087FD0EF051
:10425000C1FD049BC418039BA3420BD80024019BFF
:104260000136A34206D0092E04D9180001260130D8
:1042700003B201930A2501225F4B6343D3415F4A96
:1042800093420CD8029B002B09DD290020000EF080
:1042900053FB0299040001394BB20293EBE7162558
:1042A00006ABED1830000A210EF0CCFB013D303199
:1042B000300029700A2103960EF03EFB039B060096
:1042C000092BEFD8162306AA9B185A1B2900380081
:1042D000FFF789FA029B002B24D00A2503930AAE2C
:1042E000039B013E013B5BB2039301330BD02000E3
:1042F00029000EF0A7FB30312000317029000EF0AC
:104300001BFB0400ECE76B46197A1024CB432E22EA
:1043100006A81B19C2544A1CC9430AAB38005918D5
:10432000FFF761FA019B002B00D18BE0652138007B
:10433000FFF75CFE6B469C88019B002B05DA2D2164
:104340003800FFF753FE6442A4B2162306AA9B1856
:104350001D000A26200031000EF074FB013D3031B3
:1043600020002970310001940EF0E6FA019B84B21E
:10437000092BEFD81623290006AA9B185A1B3800D0
:10438000FFF731FA5EE01C681D49002C20D0380090
:104390001C49FFF732FA3B7A01333B723800FFF7D2
:1043A00039FA39002000FFF749FE2000FDF730FF01
:1043B0001549041E00D115493800FFF71EFA002CDC
:1043C000ECD13B7A3800013B3B72FFF723FA1049EE
:1043D0003800FFF712FA35E088980100D0126341E7
:1043E000509D0100089D0100F168E388B5F8E43EA6
:1043F0000000244000CA9A3BCDCCCCCC99999919A5
:10440000D6980100D2980100CE980100CF98010003
:10441000D79801001900380000F0FAFE0DB0F0BD89
:10442000222130CB3800FFF7E1FD6519A54205D008
:1044300021783800FFF7E4FD0134F7E72221380046
:10444000FFF7D4FD7868E9E706CB98E71C685D685C
:10445000002D08DA2D213800FFF7C8FD22002B00BF
:10446000002554429D4122002B003800FFF7E2F95D
:10447000E8E71A685B68F8E71B780249002BA7D1C8
:104480000149A5E77D98010082980100F0B506007A
:10449000264FC0360400A1B039003000FDF77EFE83
:1044A00000281FD02000FEF7D7F82149051E13D0A1
:1044B0000023FA2213AD2B82AB7414931D4B920090
:1044C0001592139331001C4B1C4A17A808F0C0FB2F
:1044D0002D7C002D0BD11A491A480AF027FD28001F
:1044E00021B0F0BD184917480AF020FDE0E700228E
:1044F000164906A8FEF72AFB08AA15490EA8256842
:10450000FFF74EF901002800FDF73BFE114908AA0C
:104510000EA8FFF745F9051E31D0616800291BD1AF
:104520007F22037A93432B7229E0C04683910100D6
:10453000D9980100E89C0100024200003699010070
:10454000489901000437002006990100AC070000DB
:10455000AD950100B5950100E36808A81A00019324
:1045600004930391FEF708FB7F222B7A93430028E4
:10457000D9D07A3A13432B72019B28606B60F749BC
:1045800008AA0EA8FFF70CF9051E02D0FDF7A9FE38
:1045900005002369291E019305D0F149280008AAC6
:1045A000FFF7FEF801000198FDF7EBFD6369291E96
:1045B000019305D0EB49280008AAFFF7F1F80100A4
:1045C0000198FDF7DEFDA3690193002D05D02800B9
:1045D000E54908AAFFF7E4F8050029000198FDF76E
:1045E000D0FD08AAE1490EA8E569FFF7D9F8010056
:1045F0002800FDF7C6FD08AADD490EA8256AFFF7C9
:10460000CFF801002800FDF7BCFD08AAD9490EA883
:10461000656AFFF7C5F801002800FDF7B2FD08AA9A
:10462000D5490EA8A56AFFF7BBF801002800FDF7E1
:10463000A8FD08AAD1490EA8E56AFFF7B1F8010064
:104640002800FDF79EFD08AACD490EA8256BFFF7AF
:10465000A7F801002800FDF794FD08AAC9490EA893
:10466000656BFFF79DF801002800FDF78AFD08AA99
:10467000C5490EA8A56BFFF793F801002800FDF7C8
:1046800080FD08AAC1490EA8E56BFFF789F8010073
:104690002800FDF776FD08AABD490EA8256CFFF796
:1046A0007FF801002800FDF76CFD08AAB9490EA8A3
:1046B000656CFFF775F801002800FDF762FD08AA98
:1046C000B5490EA8A56CFFF76BF801002800FDF7AF
:1046D00058FD08AAB1490EA8E56CFFF761F8010082
:1046E0002800FDF74EFD08AAAD490EA8256DFFF77D
:1046F00057F801002800FDF744FD08AAA9490EA8B3
:10470000656DFFF74DF801002800FDF73AFD08AA96
:10471000A5490EA8A56DFFF743F801002800FDF795
:1047200030FD08AAA1490EA8E56DFFF739F8010090
:104730002800FDF726FD08AA9D490EA8256EFFF763
:104740002FF801002800FDF71CFD08AA99490EA8C2
:10475000656EFFF725F801002800FDF712FD08AA95
:1047600095490EA8A56EFFF71BF801002800FDF77C
:1047700008FD08AA91490EA8E56EFFF711F801009F
:104780002800FDF7FEFC08AA8D490EA8256FFFF74B
:1047900007F801002800FDF7F4FC08AA89490EA8D3
:1047A000656FFEF7FDFF01002800FDF7EAFC08AA8F
:1047B00085490EA8A56FFEF7F3FF01002800FDF75D
:1047C000E0FC08AA81490EA8E56FFEF7E9FF0100A9
:1047D0002800FDF7D6FC231D08AA7D490EA8DD6F31
:1047E000FEF7DEFF01002800FDF7CBFC230008AA3E
:1047F000083378490EA8DD6FFEF7D2FF01002800CC
:10480000FDF7BFFC230008AA883373490EA81D6872
:10481000FEF7C6FF01002800FDF7B3FC230008AA3D
:104820008C336E490EA81D68FEF7BAFF0100280000
:10483000FDF7A7FC230008AA903369490EA81D685C
:10484000FEF7AEFF01002800FDF79BFC230008AA3D
:10485000943364490EA81D68FEF7A2FF01002800EA
:10486000FDF78FFC230008AA98335F490EA81D6846
:10487000FEF796FF01002800FDF783FC230008AA3D
:104880009C335A490EA81D68FEF78AFF01002800D4
:10489000FDF777FC230008AAA03355490EA81D6830
:1048A000FEF77EFF01002800FDF76BFC230008AA3D
:1048B000A43350490EA81D68FEF772FF01002800BE
:1048C000FDF75FFC230008AAA8334B490EA81D681A
:1048D000FEF766FF01002800FDF753FC230008AA3D
:1048E000AC3346490EA81D68FEF75AFF01002800A8
:1048F000FDF747FC230008AAB03341490EA81D6804
:10490000FEF74EFF01002800FDF73BFC230008AA3C
:10491000B4333C490EA81D68FEF742FF0100280091
:10492000FDF72FFCB83408AA37490EA82468FEF713
:1049300037FF01002000FDF724FC13AB0393002395
:1049400003A90B720EA84B60FFF778FB051E67D119
:104950002E492F480AF0EAFA17A85BE0C09501003B
:1049600080920100CA9D0100D2950100D4950100FA
:10497000E5950100F79501000C96010021960100D4
:104980003696010046960100569601006796010092
:104990006E960100759601007C96010083960100D9
:1049A0008A960100A0960100B3960100C49601000A
:1049B000D5960100E6960100F796010008970100E0
:1049C000199701002A9701003B9701004C970100BD
:1049D0005E97010070970100829701009497010093
:1049E000A6970100B8970100CA970100DC97010063
:1049F000EE97010000980100129801002498010030
:104A000036980100489801005A9801007C990100ED
:104A10000437002008F0BEF806A8FEF7D1F85EE5DE
:104A200017A808F0B7F839003000FDF7B7FB0028E9
:104A300012D039003000FDF7BEFB0A49051E07D031
:104A40003A0030000849FDF7C9FB051EE4D10749CB
:104A500007480AF06BFADFE7064905480AF066FAEC
:104A6000EEE7C046A799010036990100F7990100C9
:104A700004370020D4990100F0B5040025005A4FF6
:104A8000A9B05A493800BC350AF050FA0021012279
:104A9000286809F05FFB56490190002800D19EE08C
:104AA000544938000AF026FA2B682600181D09F030
:104AB000B5FB1022010038000AF0CFFA2D68C0368D
:104AC000012200232900300009F01CF8021E17D033
:104AD000494BE518280008F05DF83100280007F080
:104AE00015FE002814D1454938000AF01FFA380095
:104AF00043490AF01BFA00230193019829B0F0BD45
:104B000003002900300008F0FDFF0028E0D1EAE7AB
:104B10003C4B3D4938001E600AF008FA2000FFF7C0
:104B200007FA0190002859D1384938000AF0FEF9F7
:104B3000374938000AF0FAF9802104AD0022280034
:104B40000901FEF703F8A523DB00E258002A00D193
:104B5000304AAB683021EB606B6902A82B610023FF
:104B60002B7648254018037002A8401906AE10960F
:104B700003705120159202AA121813700CA90A236F
:104B8000002210A81796FEF765FF051E0CD15022D3
:104B900002AB9B181B78002B46D0302102AB5B1870
:104BA0001B781B0740D503351B4938000AF0A2F9D2
:104BB0001A4BAD003800E9580AF0CCF904A8FDF70B
:104BC000FFFF9AE731000CA8FEF70DF8FDF7AFFBE9
:104BD000010042E012490AF0A9F9EFE71149380053
:104BE0000AF0A4F989E7C046043700202F9A010093
:104BF0004D9A0100759A010004050000AE9A01006B
:104C0000D19A0100E03300208D9A0100149B01002D
:104C10003D9B01007C980100589B0100040000208E
:104C2000A09B0100CD9B0100EB4B03A91193012335
:104C300010A8109625000393FEF7EEFAE74E01C583
:104C400031000CA8FDF7CFFF002805D07F22037AA2
:104C50001340043B012BB5D9E149002628000CF094
:104C60008BF8E04FE04B06AD03A910A81393119504
:104C700012970396FEF7E6FADC4B206103A910A811
:104C80001393119512970396FEF7DCFAD84B6061E7
:104C900003A910A81393119512970396FEF7D2FA61
:104CA000D44BA06103A910A8119310950396FEF7A9
:104CB000B3FAD14BE0611193122303A910A8039317
:104CC0001095FEF7A9FACD4B20621193132303A987
:104CD00010A803931095FEF79FFAC94B60621193D9
:104CE000142303A910A803931095FEF795FAC54B5A
:104CF000A0621193152303A910A803931095FEF742
:104D00008BFAC14BE06203A910A81193109503968A
:104D1000FEF782FABD4B206303A910A811931095EA
:104D20000396FEF779FABA4B606303A910A81193B2
:104D300010950396FEF770FAB64BA06303A910A86E
:104D4000119310950396FEF767FAB34BE06303A93E
:104D500010A8119310950396FEF75EFAAF4B2064EE
:104D600003A910A8119310950396FEF755FAAC4BC2
:104D7000606403A910A8119310950396FEF74CFAEE
:104D8000A84BA06403A910A8119310950396FEF7F1
:104D900043FAA54BE0641193FF2303A910A80393E2
:104DA0001095FEF739FAA14B20651193A04B03A98A
:104DB00010A803931095FEF72FFA9E4B606503A988
:104DC00010A8119310950396FEF726FA9A4BA0654A
:104DD00003A910A8119310950396FEF71DFA974B9F
:104DE000E06503A910A8119310950396FEF714FA35
:104DF000934B206603A910A8119310950396FEF714
:104E00000BFA904B606603A910A8119310950396B6
:104E1000FEF702FA8C4BA06603A910A81193109517
:104E20000396FEF7F9F9894BE06603A910A81193E0
:104E300010950396FEF7F0F9854B206703A910A89B
:104E4000119310950396FEF7E7F9824B606703A96B
:104E500010A8119310950396FEF7DEF97E4BA0671C
:104E600003A910A8119310950396FEF7D5F97B4B73
:104E7000E06703A910A8119310950396FEF7CCF9EB
:104E8000231DD867764B03A910A81193109503969C
:104E9000FEF7C2F923000833D867724B03A910A8A4
:104EA000119310950396FEF7B7F923008833186025
:104EB0006D4B03A910A8119310950396FEF7ACF95A
:104EC00023008C331860694B03A910A81193109527
:104ED0000396FEF7A1F9230090331860644B03A9F1
:104EE00010A8119310950396FEF796F923009433BA
:104EF0001860604B03A910A8119310950396FEF754
:104F00008BF92300983318605B4B03A910A8119309
:104F100010950396FEF780F923009C331860574BD9
:104F200003A910A8119310950396FEF775F92300B5
:104F3000A0331860524B03A910A811931095039643
:104F4000FEF76AF92300A43318604E4B03A910A89A
:104F5000119310950396FEF75FF92300A8331860AC
:104F6000494B03A910A8119310950396FEF754F925
:104F70002300AC331860454B03A910A8119310957A
:104F80000396FEF749F92300B0331860404B03A99C
:104F900010A8119310950396FEF73EF92300B43341
:104FA00018603C4B03A910A8119310950396FEF7C7
:104FB00033F92300B83318602000FFF767FA0400C4
:104FC0003548B44200D105E6344909F0AFFF04A8E2
:104FD000FDF7F6FD019490E5AD950100B595010052
:104FE000A1950100C095010080920100CA9D0100B9
:104FF000D2950100D4950100E5950100F7950100D7
:105000000C9601002196010036960100469601009B
:1050100056960100679601006E9601007596010094
:105020007C960100839601008A960100A0960100FB
:1050300088130000B3960100C4960100D5960100C4
:10504000E6960100F7960100089701001997010004
:105050002A9701003B9701004C9701005E970100E1
:10506000709701008297010094970100A6970100B4
:10507000B8970100CA970100DC970100EE97010084
:105080000098010012980100249801003698010050
:10509000489801005A98010004370020769B0100CF
:1050A000F0B506004F4FA5B0C03600900D0030009F
:1050B00039000192FDF772F8041E06D14A494B48A7
:1050C00009F034FF200025B0F0BDFA2300229B0038
:1050D0001993474B17AC31002282A2741793626078
:1050E00000233A001BA807F0B3FD277C3F4E002F9A
:1050F00005D130003F4909F019FF3C00E2E780216B
:10510000002209010AA80CAFFDF720FD210038009C
:10511000FEF7E8FEC4B21BA807F03CFD002C0ED041
:105120003549300009F0E6FE344BA4003000E15868
:1051300009F010FF00240AA8FDF742FDC2E714ABF6
:105140001B789B0641D52B68AA68190012A8069304
:105150000792FDF7A5F8002837D0290003A80BF027
:10516000F9FD03A907A806970BF0F4FD03A80BF0BF
:1051700066FD069C079B20000393099B07990493F7
:10518000099A23001830FEF780FB002807D0019B06
:105190001968002915D17F22037A9343037207A867
:1051A0000BF04DFD0AA90098FDF7A6FD0098FFF74A
:1051B0006DF91349041E00D11249300009F0B6FE02
:1051C000B9E72200FEF795F8E9E730000E4909F04B
:1051D00091FE2900300009F091FE30000B4909F0E2
:1051E000A5FEA7E783910100F09B01000437002092
:1051F000E89C0100139C0100429C01000400002077
:10520000B49C0100879C01005E9C01006B9C010026
:10521000F8B50D6804001F49002D35D022271E491E
:10522000FEF7EBFA237A013323722000FEF7F2FA3D
:1052300039002000EE68FEF7D9FE3178002904D04D
:1052400020000136FEF7DCFEF7E739002000FEF70C
:10525000CDFE20001149FEF7D0FA21002800FEF70C
:10526000EDFE2800FCF7D4FF0D49051E00D10D49C5
:105270002000FEF7C2FA002DD7D1237A2000013B8F
:105280002372FEF7C7FA08492000FEF7B6FA6068F5
:10529000F8BDC046DC9C0100D89C0100F7920100DB
:1052A000CE980100CF980100DD9C01000023016031
:1052B00083807047F7B504002F49006806F084FE2C
:1052C0002E4D061E05D128002D4909F02FFE300075
:1052D000FEBD28002B4909F029FE2B4B1F78002F1B
:1052E000F5D02A49280009F021FE002369462068EC
:1052F0000093019306F071FE2549280009F0FAFD9C
:10530000206806F09DFE2349002800D1224928008C
:1053100009F020FE2149280009F008FE0122102191
:10532000206806F0DFFE01220221206806F0DAFE86
:1053300001220421206806F0D5FE01220821206800
:1053400006F0D0FE01222021206806F0CBFE0122CB
:105350004021206806F0C6FE01228021206806F068
:10536000C1FE0F49280009F0E1FD0122206811006B
:1053700006F0B8FE3E00AAE71C0F0020043700200C
:10538000E49D0100089E01001C0000202B9E0100EE
:105390004E9E0100D49D0100DC9D01005E9E010037
:1053A0007C9E0100F0B5134F85B01349060038000C
:1053B00009F0BCFD10220021684610F09AFC00257F
:1053C00080231B015C1B102C00D91024A4B22300E5
:1053D00029006A46306806F03DFE80236519ADB2AB
:1053E0001B019D42ECD33800044909F09FFD05B034
:1053F000F0BDC04604370020919E0100B39E01001D
:1054000037B5082504002A006846084910F055FC05
:105410000749084809F08AFD2B006A4600212068E8
:1054200006F018FE1023A38037BDC0469D9F0100E3
:10543000C19E010004370020F7B507001E000025BB
:1054400000910192B54211D2741BE4B20F2C00D925
:105450001024019BA4B25A19009B3868E91889B23C
:105460002300651906F0F6FDADB2EBE7F7BD0000CD
:10547000F0B585B0019054480E0009F04FFD019B36
:1054800000241033009300230393103302934E4DF6
:10549000B44200DB92E04D4B9C4203DC28004C49B7
:1054A00009F028FDFA239B009C4203DA28004849B2
:1054B00009F020FD632C03DC2800454909F01AFDA2
:1054C000092C03DC2800424909F014FD0A222100BE
:1054D000280009F09AFD28003E4909F00BFD8023C1
:1054E0005B019C4203DA2800394909F003FD364D7F
:1054F000FF2C03DC2800364909F0FCFC0F2C03DCF0
:105500002800334909F0F6FC10222100280009F098
:105510007CFD2800304909F0EDFC2500039BEB18C9
:10552000AE422AD0029BAB4212D1009D019B103D9E
:105530009F19BD4234D0009B9D4231D0297822482A
:105540000B00203B5E2B27D80AF0DAF80135F0E794
:10555000019B5B5D0F2B03D81D491B4809F0CAFC5A
:10556000019B194F595D1022380009F068FD380081
:10557000194909F0BFFC0135D0E7102BD5D00F2712
:10558000102300253740DF1B14490F48013509F06F
:10559000B1FCAF42F8DCC8E7114909F0ABFCD5E734
:1055A000094809F0BBFC029B103410330293009BA6
:1055B00010330093039B103B039368E7280009F026
:1055C000ADFC05B0F0BDC046043700200F27000039
:1055D000CC9801007E92010039910100E89E010003
:1055E000ACA00100B0B50C0000AF05000A490B48A3
:1055F00009F09CFC6A46E31DDB08DB00D31A9D46DC
:1056000028686A462300002106F05AFD68462100FA
:10561000FFF72EFFBD46B0BDEC9E01000437002011
:10562000F0B59DB000AF0400272101200C250BF040
:10563000F1FA304AC3B26421781911F09FFA2E4E64
:105640002E49300009F056FC7919300009F082FC2F
:10565000781911F0D9FA6A464319DB08DB00D31A2E
:10566000D1229D461A70D03A5A7080185432DA709E
:10567000513A98701A71781911F0C6FA6B46791977
:105680000200581D10F019FB781911F0BDFA032320
:105690000822053085B2A18820003B72BA18013B70
:1056A0007D72FFF7C9FEA1886A46023189B22B00DC
:1056B0002000A180FFF7C0FEFE23A08810492D180E
:1056C000A5803000FB7109F031FCFA1D2000A18893
:1056D0000123FFF7B1FEA38830000133A3800949FD
:1056E00009F024FC2000A188FFF77CFFBD461DB017
:1056F000F0BDC046149F010004370020519F0100F7
:10570000619F0100839F010010B5092009F06AFB29
:1057100043425841C0B210BDF7B50D1E0091019231
:105720001AD00468002C17D0E668019F301E01D003
:1057300011F06AFA874208D100239F420DD0E95C3C
:10574000F25C914201D10133F7E70A22A35E002BFC
:1057500002D01B01E418E5E700242000FEBD7047DD
:1057600010B5040004F018FB1921200004F030FDEE
:10577000200004F063FB10BD13B533221821040090
:1057800004F0A5FF002806D10C490D4809F0E2FB02
:1057900009F0ECF8FCE72000002104F0A9FE20004D
:1057A000042104F079FFFF230193EB3B0093502287
:1057B000022120000A3B04F09BFD13BDA59F0100C0
:1057C0000437002010B50C4C200006F081FA0028A8
:1057D00004D10A490A4809F0BDFBFEE7FA2101227B
:1057E0002000090206F0E0FA002804D10549044827
:1057F00009F0B0FBFEE710BD44050020C49F010086
:1058000004370020E99F010010B5FFF7DBFF0548D2
:10581000FFF750FD002804D10349044809F09AFB22
:10582000FEE710BDE80E00200DA0010004370020A7
:1058300010B5112009F0D6FA43425841C0B210BD4C
:10584000F8B504000F0016001D0004F089FEE3689F
:105850003B602369336063692B60F8BD10B509F0C4
:1058600095FA10BD70B50C001A49050011F0BAF98F
:10587000002810D121001E30FFF7F0FF21000F207B
:10588000FFF7ECFF21001D20FFF7E8FF21001020AB
:10589000FFF7E4FF70BD28000F4911F0A3F90028BD
:1058A00006D121000530FFF7D9FF21000E20EFE7D8
:1058B00028000A4911F096F9002806D121001C3071
:1058C000FFF7CCFF21001320E2E70549054809F066
:1058D00041FBDFE72BA0010031A0010038A001004F
:1058E0003DA001000437002010B500211C2009F064
:1058F0004DFA0021132009F049FA0021052009F092
:1059000045FA00210E2009F041FA00211E2009F07D
:105910003DFA00210F2009F039FA00211D2009F07D
:1059200035FA0021102009F031FA10BD10B501211F
:10593000132009F0FBF901211C2009F0F7F90121DE
:105940000E2009F0F3F90121052009F0EFF90121FA
:105950001E2009F0EBF901210F2009F0E7F90121E0
:105960001D2009F0E3F90121102009F0DFF9FFF70C
:10597000BBFF10BD10B50E4804F05AF896210D4C2F
:105980008901200009F054FF20000B4909F0E2FAD8
:105990000221112009F0CAF90221092009F0C6F9F3
:1059A0000221122009F0C2F9FFF7C0FF10BDC04666
:1059B0001C0F00200437002055A0010010B5012164
:1059C0001C2009F0E3F90121132009F0DFF901217E
:1059D000052009F0DBF901210E2009F0D7F901219A
:1059E0001E2009F0D3F901210F2009F0CFF9012180
:1059F0001D2009F0CBF90121102009F0C7F910BDD5
:105A000070B504000E0000256388AB4206DDA9B224
:105A10003200200004F041FB0135F5E7200004F0DE
:105A20000DFA70BD10B5122009F0DCF9434258415F
:105A3000C0B210BD10B5FFF767FE002801D0FFF718
:105A4000F1FF10BD10B5BF244443FF2120000CF02E
:105A5000FDFF084A8000C3B2944202DD06481843A5
:105A600010BD064A18049442FADDFF201B02000410
:105A7000F5E7C0467E80000000FFFF00BE4000004A
:105A8000C343DBB2542B09D803229800181A53439E
:105A90000138C0B20004DBB218437047A92B09D803
:105AA0000320553BDBB258439A00C0B29B1A000258
:105AB000013BF0E703225633DBB29800181A534338
:105AC0000138C0B2DBB200021B04E5E71300F0B5F9
:105AD00004000F0087B002330092551E0393BB1CD5
:105AE000029314236B43214A7E1ED2180492204A4B
:105AF000D3180593042E17D8042D15D8049AB30093
:105B0000D158059AD35801934B1C04D02000194A50
:105B100089B204F0C2FA019B013305D06B46200024
:105B20009988144A04F0B9FA029B0136B342E1D1D4
:105B3000039B01359D42D2D10521009B0C4A59435C
:105B40000A4BC9198900CB588D585A1C04D0002221
:105B5000200099B204F0A1FA6B1C04D000222000AE
:105B6000A9B204F09AFA07B0F0BDC046E0A7010060
:105B70005CA80100FFFFFF00F0B58BB0009101921F
:105B800005001C22002102A810F0B3F801235B429B
:105B90000393049302330693099302AC0AAF009B6C
:105BA0002268991804291AD8019B62689B18042B53
:105BB00015D8052253430C4A5B189B0099580B4A91
:105BC0009E584B1C04D02800094A89B204F065FA9B
:105BD000731C04D02800064AB1B204F05EFA0834FF
:105BE000A742DCD10BB0F0BDE0A701005CA801002A
:105BF000FFFFFF000523534359180A4B89000A4A47
:105C0000CB5870B504008D585A1C03D0074A99B27E
:105C100004F043FA6B1C04D02000044AA9B204F03B
:105C20003CFA70BDE0A701005CA80100FFFFFF0087
:105C3000F7B5002600230424114F019311483D00BD
:105C400006F0AEF9203D80B20123184203D0019A3C
:105C50002B88D318019302354008BD42F4D1013C92
:105C60002035E4B22F00002CE8D1019B06499B09A6
:105C70005B180649720001368B52402EDAD1F7BD0F
:105C8000A2A50100440500200080FFFFC4040020FD
:105C9000F7B50026FFF738FD002825D10424134F5F
:105CA000019013483D0006F07BF9203D80B20123AE
:105CB000184203D0019A2B88D3180193023540086B
:105CC000BD42F4D1013C2035E4B22F00002CE8D1D4
:105CD000019A73009009074A01368018064AD0528B
:105CE000402ED7D10120FEBD0020FCE7A2A5010077
:105CF000440500200080FFFFC4040020F7B5474D95
:105D00004021280005F03CFF04260423E85E0DF046
:105D1000DFFF071C0623E85E0DF0DAFF391C041CC8
:105D2000381C0DF0BDFC211C071C201C0DF0B8FC1C
:105D3000011C381C0DF04EF90BF0F4F90FF026FEA3
:105D4000374A384B0EF00AF80BF060F90FF066FE98
:105D5000354C04353719043638607C2ED5D165684A
:105D60007B3EB300E758291C381C0CF0BFFF00280D
:105D700000D03D1C01361F2EF3D12C4B291C1E6870
:105D8000301C0CF09FFF002818D1301C0FF0FEFDD6
:105D9000274A284B0EF052FF0600281C0F000FF078
:105DA000F5FD254A254B0EF049FF02000B0030009F
:105DB00039000DF0D3FF0FF031FE051C1B4B281CE2
:105DC0001D600FF0E3FD02000B0000201C490EF0E7
:105DD0002FFB0126009001911A4F60680FF0D6FD4D
:105DE000009A019B0EF02AFF0FF018FE0021051CFF
:105DF0000CF068FF002806D00023636001360434ED
:105E00001F2EEAD1F7BD0F49281C0CF06FFF0028A8
:105E100001D16560F2E76760F0E7C046C404002086
:105E200048AFBC9AF2D77A3ECC050020240000206F
:105E3000666666666666EE3F9A9999999999A93F52
:105E400000002E400000704170B500200124064D76
:105E5000A300E95801340DF0BDF81F2CF8D1034917
:105E60000DF054FA70BDC046CC0500200000F04192
:105E7000F7B5FF271B4B05001E68080C38400C00C7
:105E80000DF026FF311C0DF00BFC0CF08BFFC0B2A7
:105E90000304200A384001930DF01AFF311C0DF065
:105EA000FFFB0CF07FFF019BC0B200020343200008
:105EB000384001930DF00CFF311C0DF0F1FB0CF09C
:105EC00071FF0024019BC6B21E43A1B2320028001C
:105ED000013404F0E2F82A2CF7D1280003F0AEFFD9
:105EE000F7BDC04630030020F8B5244B05001C6800
:105EF0002349201C0CF0E6FE00283AD12149201C41
:105F00000CF0F4FE002836D11D49201C0DF0E2FCF7
:105F10001D490DF0FBF91D490DF0C2FB8621C90595
:105F20000DF058F80CF03EFF0024194F3B88C018C4
:105F30003880184B184918680DF0B2FB0CF032FF8E
:105F4000C6B220042A21001B0CF0F6FC3B8832006C
:105F5000C018FF2180B204F0D7F8A1B202000134CA
:105F6000280004F09AF82A2CE3D1280003F066FFF9
:105F7000F8BD034CC8E7034CC6E7C046200000202C
:105F800000007042000034430000F0420000604412
:105F9000B60300203003002000007F43F7B5224BFA
:105FA0001B780193002B3DD1204806F021FA0123F4
:105FB0001D4A1F4D13701F4F2B681F493B60019BEB
:105FC0001E482B6008F0C6FF112008F037FE0AF0CB
:105FD00010FEFFF7F3FC1A4C1A492000FFF710FDE2
:105FE000200003F02BFF184E3000FFF7DBF93000E4
:105FF000FFF706FA3000FFF713FB14490F4808F0CB
:10600000A9FF0A4806F0F4F9FFF76EFC2000019999
:10601000FFF7F6FC200003F011FF3B68019A2B60AC
:10602000014B1A70F7BDC04655060020DC33002036
:1060300078000020080F002061A001000437002034
:10604000F00E0020FFFFFF00E80E002077A0010007
:10605000124B00201A0010B511490C680130146071
:106060004C6854608C689460CC68D4600C691431BE
:10607000146128320528F0D100210A4A1068013144
:106080005861506898619068D861D068186210694A
:106090001432586228330529F0D110BDB80300200E
:1060A000E0A701005CA801000A21002270B50B489E
:1060B0000B4C0C4D0B000A3B0B4E1A541A555A55FB
:1060C0009A5501338B42F7D119000A31322BF1D1A5
:1060D000064B1A60064B1A6070BDC0468403002050
:1060E0008C040020680500209A0500204C06002042
:1060F000C0040020F7B5431E821C04000020944613
:106100000F4A521801921F1B042B14D80A255D4315
:10611000019A52190092012252425618092E07D8AC
:1061200016003E4304D0009DAE5C751EAE41801942
:106130000132022AF1D101336345E4D1FEBDC046EC
:1061400084030020F7B500261A4B1B4F01930A2544
:1061500000247543194B5D19019AA300D3580133EC
:1061600009D021003000FFF7C5FF3B5D002B04D0B4
:106170000238012803D9002302E0032800D10123BB
:1061800001342B7001350A2CE6D1019B01362833EE
:106190000A370193052EDAD123000A3B074A064944
:1061A000D25CCA540133A342F8D11C000A34322B0A
:1061B000F2D1F7BDB8030020840300208C04002036
:1061C000F8B505250D4F0E4E0024A300F9584B1CC1
:1061D00008D0325D0B4889B2002A01D00A4B1A68F8
:1061E00003F05BFF01340A2CEFD1013D28370A365A
:1061F000002DE9D1034803F021FEF8BDB8030020CB
:1062000084030020F00E00202C0300200422030051
:106210009343914207DC0020834203D191434842DB
:106220004841C0B27047481F90431843414248411B
:10623000F7E70000F8B50025FFF736FF104F0A23F7
:1062400000266B430F4CE418B300FB58013314D005
:1062500031002800FFF7DAFF00280ED102210AF0F2
:10626000D9FC431E98412070013601340A2EEBD12F
:1062700001352837052DE2D1F8BD00232370F3E75F
:10628000B8030020840300200023F0B50022C418C6
:10629000CD18A75CAE5CB74207D101320A2AF8D10B
:1062A0000A33322BF2D10120F0BD0020FCE70000C0
:1062B00010B509490948FFF7E7FF094A002808D047
:1062C0001368012001331360022B00DC0020C0B2F0
:1062D00010BD1060FCE7C0469A0500208403002032
:1062E000C0040020F0B50127FF268DB00B90099166
:1062F000FFF70AFA002877D10A230293029B0A3B90
:106300000193019B4A4A9B00D3580593013357D010
:10631000019A484B0199D35C474A8A5C002100915D
:106320008A4202D0454A126800920024A34201D05A
:10633000424B1C68009B210C1B0CDAB20692009A9F
:106340002820120A03926A46127B07926A46127844
:106350000892CAB20492220A0A926A461218157862
:106360000B9AE0B2002A41D0099A002A1ED133408C
:1063700018001421784349420CF068FB1421069B55
:1063800049421818C3B203980493304078430CF084
:106390005DFB1421079B49421818C5B20098304094
:1063A00078430CF053FB089B1818C0B2049B2D02D5
:1063B0001A046B462A430243998A214803F06DFE72
:1063C000019B01330193019A029B934299D10A33B5
:1063D00002933C2B92D11A4803F030FD0137142070
:1063E00008F0A4FA152F83D10DB0F0BD099A002A48
:1063F000DCD033403140C81A784314210CF026FB1E
:10640000069B039A1818C3B20493230A3340324000
:10641000981A142178430CF019FB079B34401D187F
:10642000009814213040201A7843EDB2B9E7C046F5
:10643000B803002084030020680500202C030020FE
:10644000F00E002070B5174C06212368581C0CF084
:10645000E3FB154B21608900CA58144B0021012031
:106460001A60FFF73FFFFFF7E5FE00200121FFF76D
:1064700039FFFFF7A5FE0A220D480E4C0E4D130002
:106480000A3B195C1955595501339342F9D11A0049
:106490000A32322BF3D10023084A1360084A1360F2
:1064A00070BDC0463803002044A801002C03002022
:1064B00084030020680500209A0500204C06002077
:1064C000C0040020064A0749536C01330B4004D531
:1064D0000421013B49420B43013353647047C046DA
:1064E0003C0300200300008010B5024803F096FE34
:1064F00010BDC046F00E00200B0040330A68026059
:106500004A6842608A688260CA681031C26010308E
:106510009942F3D17047000070B5072100200AF0BE
:1065200079FB0400094D0A4B8101C9182800FFF7C7
:10653000E3FF0122074BA400E3582B64064B1A60CB
:10654000064B053A1A6000236B6470BD3C030020C3
:1065500020A6010004A60100280000202C00002035
:10656000F0B506000700002593B0103600910196A3
:106570004037009B9D421DDA02AA0300140001006F
:106580000E6B26600E6A66600E69A66040C9E66002
:10659000019E1034B142F3D11168196051685960FD
:1065A00091689960D1681032D9601033BB42F3D141
:1065B0000135DEE713B0F0BDF0B593B0FFF794FFFF
:1065C0001F4F02A83900FFF797FF796C02A8FFF769
:1065D000C7FF002602AC0025AB00E358002B22D0F9
:1065E000184B1A68B218042A1DD8174B1968691875
:1065F000042918D805235343144A5B189B00995863
:10660000134A9B5801934B1C04D03A6C114889B231
:1066100003F043FD019B013305D06B463A6C99882A
:106620000C4803F03AFD0135042DD5D10136103464
:10663000042ED0D1074803F001FC13B0F0BDC046D2
:106640003C0300202C00002028000020E0A70100CF
:106650005CA80100F00E0020F7B504000D00160044
:1066600008F02EF923001427643300900193236867
:106670005A1C2ED02169009A521AA1688A4228D346
:106680005A1C2260009A2261022B17D80521002093
:106690000AF0C0FA236860607B4380003018C3585A
:1066A00001330BD1052100200AF0B4FA22686060A2
:1066B0007A4363689B00F3189B58F1E72368042B27
:1066C00007DD01235B4223600023E3602B68013B6D
:1066D0002B60019B14349C42C9D1F7BDF7B516005D
:1066E000170014000190143678373500143D2968DE
:1066F0004B1C04D00022124889B203F0CEFC0435B2
:10670000B542F4D114352E00BD42EED1019D1427BF
:106710002E0064362A68531C0BD07A436B689B00AA
:10672000E31899584B1C04D0EA68054889B203F075
:10673000B4FC1435B542EDD1014803F07FFBF7BD41
:10674000F00E0020F0B585B002912B491400FF2611
:1067500007000CF061FA7143080027490CF076F944
:10676000029B0390F01A310060430CF06FF9FF2197
:10677000C5B20398029B3040584349420CF066F979
:106780008019310060430CF061F9C3B23000FF2181
:106790000193039B49429843029B58430CF056F9DE
:1067A0008019310060430CF051F91349C6B238002A
:1067B0000CF04CF980B204281AD80CF0A9F80503A3
:1067C0000B1015002600019C20043602304328439C
:1067D00005B0F0BD23002C0035001E00F4E72300B7
:1067E0002C00019E1D00EFE7230034002E00F9E786
:1067F0002E00019DE8E7C046AA2A00000D4B10B507
:106800001868002808D10C490AF004FAFF2280B267
:106810001100FFF797FF10BD032201384243074BD9
:10682000D05C9B185A7800049B78120210431843DE
:10683000F1E7C04634030020FFFF000064A501001B
:10684000F8B503000D00160004006433226801321D
:1068500039D100270421012027600AF0DBF9142335
:1068600022686060534380003018C35801331ED142
:10687000BA4216D1042101200AF0CCF91427606035
:1068800039002268636851439B00F3185B58013359
:106890000DD1002A08D1042101200AF0BBF9606063
:1068A000EEE705213800E7E705210020F5E7FFF7CF
:1068B000A5FF6423E060A36008F002F82B68206164
:1068C00001332B60F8BD1434A342BFD1FAE710B5F1
:1068D0000021FFF795F810BD013810B5072818D82A
:1068E0000CF016F804090B0D0F1113151320FEF709
:1068F000B5FF012010BD1C20F9E70E20F7E70520A9
:10690000F5E71E20F3E70F20F1E71D20EFE7102049
:10691000EDE70349034808F01DFB0020EAE7C04605
:1069200088A00100043700201FB5009101920028C3
:1069300009D0027A2023110019401A4205D000998B
:10694000019AFEF7E9FE05B000BD0800FBE7000074
:1069500070B50D008021040098B0002209010CA838
:10696000FCF7F4F8210005A80AF0F4F90EAE05A929
:1069700009A808960AF0EEF905A80AF060F9099B43
:10698000089803930B9B099904930B9A089B183062
:10699000FCF77BFF002809D07F22037A0560934330
:1069A0001A000A23ED1713430372456009A80AF081
:1069B00046F9210005A80AF0CDF905A909A808960D
:1069C0000AF0C8F905A80AF03AF9089D099B2800C1
:1069D00005930B9B09991A0018300693FFF7A4FF43
:1069E000019009A802950AF02AF921000B4801AA92
:1069F000FEF756FB00280CD1094D0A49280008F083
:106A000079FA2100280008F079FA2800064908F0F0
:106A10008DFA0CA8FCF7D4F818B070BD6006002001
:106A20000437002098A00100ABA001001FB50400AE
:106A300009490A4808F08EFAFEF7C0FF084901A884
:106A40000AF045F9210001A8FFF782FF01A80AF02A
:106A5000F6F8FEF749FF1FBDAEA001000437002085
:106A6000D4950100F0B591B0B5490490B54808F04F
:106A700071FA1922002109A80FF03BF901230193B3
:106A800000231D00029306930093FEF73DFE0028AD
:106A90003FD1AD4B1B78002B3BD1AC4805F0A8FC97
:106AA00007F00EFF0790FEF7C5FF002801D0FFF7A3
:106AB00075FA122008F096F9019B002B00D132E103
:106AC000002800D032E1323007F030FF122008F009
:106AD00089F9041E00D029E107F0F2FE9C490690D6
:106AE000984808F037FA009407F0EAFE069BC01AAF
:106AF000FA239B00984200D20FE19649914808F092
:106B000029FA954B1868FFF791FF0123019302932F
:106B100019E000210498FEF773FF322007F006FF0A
:106B200011B0F0BD009B002B00D1E8E007F0C8FEDB
:106B3000069BC01AFA235B00984200D3CCE0874939
:106B4000804808F007FA079B5B1B1D2B00D8BBE0B1
:106B500009AB1E00142703933C003500143C804B06
:106B6000E358013303D17F4BE358013309D0662149
:106B700000200AF04FF82B78834200DBD1E000239D
:106B80002B7004340135BC42E9D127000536143797
:106B9000642CE1D11926039B0F3B0593059B704F95
:106BA0009D19741FA300DA59013203D16D4A9B5815
:106BB000013307D02B7868790321C018C0180BF077
:106BC00045FFA87201340135B442EBD1661F0F2C8A
:106BD000E4D10024039D624B1B191B6D013304D1CA
:106BE000604B1B191B6D01330BD0FF200AF007F817
:106BF000772806DCFF21A0202E7D0AF00BF836183E
:106C00002E7504340135142CE5D1132308AA9B18E2
:106C100005933C342500059E143D514BEB58013340
:106C200003D1504BEB5801330BD0FF2009F0E7FFA5
:106C3000072806DCFF21A020377809F0EBFF3F187A
:106C4000377004350136AC42E7D1059B143C053B57
:106C50000593002CDED10525414E039F0024A3009F
:106C6000F3580593013309D00499385DFEF7EAFE25
:106C70006B460200998A049803F00FFA0134052C40
:106C8000EDD1013D05371436002DE7D1354E0025F5
:106C9000AB00F7587B1C09D0039B0499585DFEF7A5
:106CA000D1FEB9B20200049803F0F7F90135052DC1
:106CB000EED1039B013C053303931436002CE6D13F
:106CC000049803F0BBF8079D012007F02FFE009BFE
:106CD000019A01930092D8E6FA239B00984200D2D1
:106CE00031E7029B002B0FD11F49164808F032F9FB
:106CF000194B1868FFF79AFE029B019323E7009B4C
:106D00000193012300931EE7029BFBE7009A019B7E
:106D10000192F7E7019B0093EEE700230293013312
:106D2000EBE71B1A2CE7002800D0FBE6009B002BAA
:106D3000ECD0029B002BEDD1019B0093D4E6C04622
:106D4000CAA001000437002054060020DC330020D4
:106D5000F3A0010051A101005006002009A101008B
:106D6000E0A701005CA801003CA10100F0B50026ED
:106D70000124350087B001905649574808F0EAF8D9
:106D8000039604960296FEF7BFFC00283CD1534BB5
:106D90001B78002B38D1524805F02AFB07F090FDF4
:106DA0000590FEF747FE002801D0FFF7F7F8122004
:106DB00008F018F8002C00D183E0002800D082E011
:106DC000323007F0B3FD122008F00CF8071E00D097
:106DD00079E007F075FD434903903F4808F0BAF8A1
:106DE0003D0007F06DFD039BC01AFA239B009842FB
:106DF00054D301243C49384808F0ACF83B4B2600FA
:106E00001868FFF713FE16E000210198FEF7F8FD61
:106E1000322007F08BFD07B0F0BD002D35D007F014
:106E20004FFD039BC01AFA235B0098421DD23049E4
:106E3000294808F08FF8059B049A9B1A132B39D91F
:106E40000027019B5988B9422BDD38020BF0FEFD6B
:106E5000029B0199C018C0B2FEF712FEB9B202003F
:106E6000019803F01AF90137EBE7FA239B009842E7
:106E7000E1D3002E0CD11F49174808F06BF81B4BCB
:106E80001868FFF7D3FD3400D5E72C000125D2E7C1
:106E90003500D0E723002C001D00CCE7002601249C
:106EA000C9E7019802F0CAFF029B01339BB202932B
:106EB000059B0493012007F039FD2B0025001C00E1
:106EC00061E70028A9D1002DE4D02500002EDAD1F9
:106ED00087E7C04676A10100043700205406002051
:106EE000DC330020F3A0010051A101005006002076
:106EF00009A101003CA10100F0B5002601243500E4
:106F000089B002906749684808F024F8079605960A
:106F1000039604940196FEF7F7FB00283DD1634BDE
:106F20001B78002B39D1624805F062FA07F0C8FCE3
:106F30000690FEF77FFD002801D0FFF72FF8122002
:106F400007F050FF002C00D1A3E0002800D0A2E001
:106F5000323007F0EBFC122007F044FF071E00D090
:106F600099E007F0ADFC534907904F4807F0F2FF56
:106F70003D0007F0A5FC079BC01AFA239B0098422E
:106F800000D280E001244C49474807F0E3FF4B4B17
:106F900026001868FFF74AFD26E000210298FEF758
:106FA0002FFD322007F0C2FC09B0F0BD002D61D0EA
:106FB00007F086FC079BC01AFA235B00984249D26F
:106FC000394F3F49380007F0C5FF03980A210130C7
:106FD0000BF022FE380003913A4907F096FF0A228F
:106FE0003800039908F015F8069B059A9B1A132B95
:106FF0004CD900210298FEF703FD0321039A324B7E
:107000005143CA5C5B18597812049B7809020A4301
:107010001A436B460298998803F03FF8029802F0F1
:107020000DFF049A019B944663440193002B05D005
:10703000029B019A5B88013B934202D1049B5B4215
:107040000493012007F072FC069B059323002C009B
:107050001D0060E7FA239B009842C5D3002E0CD197
:107060001A49114807F076FF144B1868FFF7DEFC49
:107070003400B9E72C000125B6E73500B4E723005A
:107080002C001D00B0E700260124ADE7059B069308
:10709000D7E700288AD1002DF1D02500002EE7D1B6
:1070A00067E7C046AEA10100043700205406002067
:1070B000DC330020F3A0010051A1010050060020A4
:1070C000E6A10100FCA1010064A501003CA10100B2
:1070D000F0B500260124370087B00090624963486C
:1070E00007F038FF049602960196FEF70DFB002884
:1070F0003DD15F4B1B78002B39D15E4805F078F904
:1071000007F0DEFB0590FEF795FC002801D0FEF7A6
:1071100045FF122007F066FE002C00D19CE00028FD
:1071200000D09BE0323007F001FC122007F05AFE3D
:10713000051E00D092E007F0C3FB4F4904904B4876
:1071400007F008FF2F0007F0BBFB049BC01AFA23CF
:107150009B00984200D26DE001244849434807F063
:10716000F9FE474B26001868FFF760FC16E0002187
:107170000098FEF745FC322007F0D8FB07B0F0BDC1
:10718000002F4ED007F09CFB049BC01AFA235B0033
:10719000984236D23B49354807F0DCFE059B029AFF
:1071A0009B1A312B51D90025009B5B88AB4244DDF3
:1071B00001980EF095FB0022334B0DF039F9029047
:1071C000039128000EF08CFB02000B00029803993B
:1071D0000CF0C4FD09F0C8FE00222C4B0DF02EFD72
:1071E00000222A4B0CF0BAFD0BF0F4FDC0B20304F0
:1071F000C043C2B2A9B200981A4302F04EFF013553
:10720000D2E7FA239B009842C8D3002E0CD1204924
:10721000164807F09FFE1A4B1868FFF707FC34006A
:10722000BCE73C000127B9E73700B7E723003C0083
:107230001F00B3E700260124B0E7009802F0FEFD2E
:10724000019B01330193059B0293012007F06EFB24
:107250003B0027001C0048E7002891D1002FE5D013
:107260002700002EDBD16EE714A2010004370020B6
:1072700054060020DC330020F3A0010051A10100DE
:107280005006002009A1010000001C4000006040E1
:107290003CA10100F0B500260124350085B0019025
:1072A0005E495F4807F056FE03960296FEF72CFAF9
:1072B00000283CD15B4B1B78002B38D15A4805F095
:1072C00097F807F0FDFAFEF7B5FB002801D0FEF7AE
:1072D00065FE122007F086FD002C00D195E0002805
:1072E00000D094E0323007F021FB122007F07AFD45
:1072F000071E00D08BE007F0E3FA4C4903904848A2
:1073000007F028FE3D0007F0DBFA039BC01AFA23C2
:107310009B00984200D275E001244549404807F09F
:1073200019FE444B26001868FFF780FB26E0002179
:107330000198FEF765FB322007F0F8FA05B0F0BDC2
:10734000002D56D007F0BCFA039BC01AFA235B004D
:1073500098423ED2324F3849380007F0FBFD029880
:107360000A2101300BF058FC38000291334907F034
:10737000CCFD0A223800029907F04BFE019B002049
:10738000598809F047FC0321029A2D4B5143CA5CEE
:107390005B18597812049B78090287B20A431A4392
:1073A0003900019802F079FE019802F047FDC821EA
:1073B000322009F02FFC07F0B9FA002239000198B9
:1073C00002F06BFE012007F0B1FA2B0025001C0033
:1073D0006CE7FA239B009842D0D3002E0CD11949B8
:1073E0000F4807F0B7FD134B1868FFF71FFB340079
:1073F000C4E72C000125C1E73500BFE723002C00BE
:107400001D00BBE700260124B8E7002898D1002D15
:10741000F4D02500002EEAD175E7C0464CA2010049
:107420000437002054060020DC330020F3A00100C4
:1074300051A1010050060020E6A10100FCA10100BD
:1074400064A501003CA10100F0B58DB00190824916
:10745000824807F07FFD002301261F001D000093D6
:107460000593049603930293FEF74EF900283DD14D
:107470007B4B1B78002B39D17A4804F0B9FF07F019
:107480001FFA0690FEF7D6FA002801D0FEF786FD17
:10749000122007F0A7FC002E00D1D3E0002800D076
:1074A000D3E0323007F042FA122007F09BFC041EB2
:1074B00000D0CAE007F004FA6B490590674807F06E
:1074C00049FD270007F0FCF9059BC01AFA239B0031
:1074D000984200D2B2E001266449604807F03AFDC4
:1074E000634B1868FFF7A2FA009636E00021019876
:1074F000FEF786FA322007F019FA0DB0F0BD002F22
:1075000000D192E007F0DCF9059BC01AFA235B007A
:10751000984279D2514C5749200007F01BFD03983F
:107520000A2101300BF078FB0498039101300A2105
:107530000BF072FB200004914F4907F0E6FC0A2291
:107540000399200007F061FD4C49200007F0DDFCA5
:107550000A222000049907F05CFD069B5B1B632B4D
:107560004BD90325049B464C6B431A5DE3180792E5
:107570005A789B7805210993039B08925D43631910
:1075800058780A930BF0D8F9C3B21B02285D052185
:107590000B930BF0D1F90A9B0B9CC1B209049878AC
:1075A0000C4305210BF0C8F9C1B221430198FEF745
:1075B00027FA079B029D1C04089B1B021C43099B86
:1075C0001C432B0032330793019B280059880BF092
:1075D00023FB2200019889B202F05FFD079B0A3568
:1075E000AB42F1D1019802F029FC0298019B0130D5
:1075F00059880BF011FB069D0291012007F096F9C6
:107600003B0037001E002FE7FA239B009842A4D3CB
:10761000009B002B0CD11B49104807F09BFC144B1E
:107620001868FFF703FA009E97E73E00012794E7EA
:10763000009F92E733003E001F008EE700230126E3
:1076400000938AE7002800D059E7002FF2D0009B72
:107650003700002BE7D135E787A20100043700206F
:1076600054060020DC330020F3A0010051A10100EA
:1076700050060020E6A10100C3A20100DEA2010025
:1076800064A501003CA10100F0B5002501242F00F4
:1076900099B06B4901906B4807F05CFC48226A493D
:1076A00006A80EF00AFB0395049500950295FEF7D7
:1076B0002BF800283DD1654B1B78002B39D164484D
:1076C00004F096FE07F0FCF80590FEF7B3F90028E9
:1076D00001D0FEF763FC122007F084FB002C00D1E0
:1076E000A6E0002800D0A5E0323007F01FF91220F4
:1076F00007F078FB061E00D09CE007F0E1F8554942
:107700000390504807F026FC370007F0D9F8039B98
:10771000C01AFA239B00984200D27AE001244E4915
:10772000484807F017FC4D4B25001868FFF77EF915
:1077300026E000210198FEF763F9322007F0F6F801
:1077400019B0F0BD002F5BD007F0BAF8039BC01A48
:10775000FA235B00984243D23A4E4149300007F089
:10776000F9FB0098032101300BF056FA300000912C
:107770003C4907F0CAFB0A223000009907F049FC97
:10778000049A059B9B1AFA225200934221D3029B32
:1077900006AADB009E589B185B68002101980493A1
:1077A000FEF72EF9009B012B36D0022B3AD0002B8E
:1077B00004D13100049A0198FEF788F9019802F08B
:1077C0003DFB0298092101300BF026FA059B02913E
:1077D0000493012007F0AAF83B0027001C0066E78D
:1077E000FA239B009842CBD3002D0CD11E4915489B
:1077F00007F0B0FB194B1868FFF718F92C00BFE72A
:107800003C000127BCE72F00BAE723003C001F0023
:10781000B6E700250124B3E73100049A0198FEF78A
:10782000ABF9CBE73100049A0198FEF7E3F9C5E71D
:10783000002887D1002FE8D02700002DDED164E793
:10784000E4A20100043700201CA50100540600201A
:10785000DC330020F3A0010051A1010050060020FC
:10786000E6A1010016A301003CA10100F0B500262D
:107870000124350087B001905749584807F06AFB4A
:10788000039604960296FDF73FFF00283CD1544B27
:107890001B78002B38D1534804F0AAFD07F010F8EC
:1078A0000590FEF7C7F8002801D0FEF777FB1220FD
:1078B00007F098FA002C00D186E0002800D085E07F
:1078C000323007F033F8122007F08CFA071E00D090
:1078D0007CE006F0F5FF44490390404807F03AFB8E
:1078E0003D0006F0EDFF039BC01AFA239B0098426F
:1078F00057D301243D49394807F02CFB3C4B260067
:107900001868FFF793F816E000210198FEF778F861
:10791000322007F00BF807B0F0BD002D38D006F08C
:10792000CFFF039BC01AFA235B00984220D2314953
:107930002A4807F00FFB059B049A9B1A132B3CD98E
:107940000027019B5988B9422EDD38040BF07EF8E0
:10795000FF22029B1100C01880B202F0D5FB02F09A
:1079600065FCB9B20200019802F097FB0137E8E725
:10797000FA239B009842DED3002E0CD11E491748F3
:1079800007F0E8FA1A4B1868FFF750F83400D2E70E
:107990002C000125CFE73500CDE723002C001D008A
:1079A000C9E700260124C6E7019802F047FA029BC6
:1079B0000133FF330293059B0493012006F0B6FFC9
:1079C0002B0025001C005EE70028A6D1002DE4D086
:1079D0002500002EDAD184E72EA301000437002011
:1079E00054060020DC330020F3A0010051A1010067
:1079F0005006002009A101003CA10100F0B58BB0A8
:107A0000B6490690B64807F0A5FA0A2009F0F7F83B
:107A10000124002309900393089301930494029393
:107A200007940593FDF770FE002800D040E1AD4BB0
:107A30001B78002B00D03BE1AB4804F0D9FC06F0EA
:107A40003FFFFDF7F7FF002801D0FEF7A7FA12204D
:107A500007F0C8F9002C00D133E1002800D033E151
:107A6000323006F063FF122007F0BCF9051E00D08B
:107A70002AE106F025FF9D490890994807F06AFA27
:107A8000019506F01DFF089BC01AFA239B0098423F
:107A900000D286E001249649914807F05BFA954BA5
:107AA0001868FEF7C3FF03941EE0019B002B6FD004
:107AB00006F006FF089BC01AFA235B00984256D2D4
:107AC000874D8D49280007F045FA05980A210130B5
:107AD0000BF0A2F828000591884907F016FA0A224F
